:100000000C94FC090C94240A0C94240A0C940727E1
:100010000C94240A0C94240A0C94240A0C94240AA8
:100020000C94240A0C94240A0C94240A0C94240A98
:100030000C94240A0C94240A0C94240A0C94240A88
:100040000C949E250C94240A0C946C250C94462543
:100050000C94240A0C94240A0C94240A0C94240A68
:100060000C94E8250C94240AFFFFFFFFFFFFFFFF1D
:10007000FFFFFFFFFFFFF8FFFFFFFFFFFFFFFFFF97
:10008000FFFFFFFFFFF8FFFFFFFFFFFFFFFFFF7F07
:10009000FFFFFFFFF8FFFFFFFFFFFFFFFFFF7FFFF7
:1000A000FFFFFFF8FFFFFFFFFFFFFFFFFF3FFFFF27
:1000B000FFFFF8FFFFFFFFFFFFFFFFFF1FFFFFFF37
:1000C000FFF8FFFFFFFFFFFFFFFFFF9FFFFFFFFFA7
:1000D000F8FFFFFFFFFFFFFFFFFF9FFFFFFFFFF89E
:1000E000FFFFFFFFFFFFFFFFFF8FFFFFFFFFF8FF97
:1000F000FFFFFFFFFFFFFFFF8FFFFFFFFFF8FFFF87
:10010000FFFFFFFFFFFFFF8FFFFFFFFFF8FFFFFF76
:10011000FFFFFFFFFFFF0FFFFFFFFFF8FFFFFFFFE6
:10012000FFFFFFFFFF07FFFFFFFFF8FFFFFFFFFFDE
:10013000FFFFFFFF07FFFFFFFFF8FFFFFFFFFFFFCE
:10014000FFFFFF07FFFFFFFFF8FFFFFFFFFFFFFFBE
:10015000FFFF07FFFFFFFFF8FFFFFFFFFFFFFFFFAE
:10016000FE0FFFFFFFFFF8FFFFFFFFFEFFFFFFFE99
:100170000FFFFFFFFFF8FFFFFFFFF3FFFFFFFC0F85
:10018000FFFFFFFFF8FFFFFFFF87FFFFFFFC1FFFE1
:10019000FFFFFFF8FFFFFFFE1FFFFFFFF81FFFFF3E
:1001A000FFFFF8FFFFFFF83FFFFF07F01FFFFFFF14
:1001B000FFF8FFFFFFE07FFFF03FF03FFFFFFFFF93
:1001C000F8FFFFFFC0FFFFC0FFE03FFFFFFFFFF8AA
:1001D000FFFFFF03FFFE03FFC07FFFFFFFFFF8FFEE
:1001E000FFFE07FFFC07FF80FFFFFFFFFFF8FFFF99
:1001F000FC07FFF01FFF80FFFFFFFFFFF8FFFFF886
:100200000FFFE03FFF01FFFFFFFFFFF8FFFFF81FB9
:10021000FFC07FFE03FFFFFFFFFFF8FFFFF01FFFA0
:10022000C0FFFE03FFFFFFFFFFF8FFFFF03FFF806F
:10023000FFFC07FFFFFFFFFFF8FFFFE03FFF81FF2D
:10024000FC07FFFFFFFFFFF8FFFFE03FFF81FFFC20
:100250000FFFFFFFFFFFF8FFFFA03FFF81FFFC0F35
:10026000FFFFFFFFFFF8FFFFA03FFF81FFFC1FFF25
:10027000FFFFFFFFF8FFFFB03FFF81FFFC1FFFFF05
:10028000FFFFFFF8FFFFB03FFFC1FFFC3FFFFFFF95
:10029000FFFFF8FFFF981FFFC0FFFC3FFFFFFFFFBE
:1002A000FFF8FFFF9C0FFFE07FFE3FFFFFFFFFFF18
:1002B000F8FFFF8E07FFF03FFE3FFFFFFFFFFFF855
:1002C000FFFFC703FFF81FFE3FFFFFFFFFFFF8FF21
:1002D000FFE381FFFC0FFF3FFFFFFFFFFFF8FFFF82
:1002E000F1E07FFF07FF3FFFFFFFFFFFF8FFFFF891
:1002F000781FFFC1FFBFFFFFFFFFFFF8FFFFFE1FDB
:1003000007FFF07FBFFFFFFFFFFFF8FFFFFF83E066
:10031000FFFE0FFFFFFFFFFFFFF8FFFFFFF03F1F94
:10032000FFF3FFFFFFFFFFFFF8FFFFFFFF83FFFF6C
:10033000FFFFFFFFFFFFFFF8FFFFFFFFFFFFFFFFD4
:10034000FFFFFFFFFFFFF8FFFFFFFFFFFFFFFFFFC4
:10035000FFFFFFFFFFF8FFFFFFE0FFFFFFFE003F93
:10036000FFFFFFFFF8FFFFE3FFFFFFFFFFFFC03FBF
:10037000FFFFFFF8FFFCFFFFFFFFFFFFFFFF03FF93
:10038000FFFFF8FFEFFFFFFFFFFFFFFFFFE07FFF33
:10039000FFF8FFDFFF800000000001FFF83FFE03D1
:1003A000F8FFDF0000000000000000F03FF801F857
:1003B000FFC00000000000000000003FE000F8FF68
:1003C000C0000000000000000000BFC000F8FFD81F
:1003D00000000000000000000FBF8000F8FF9F0039
:1003E00000000000000000FFBF03C078FFDFF00046
:1003F0000000000000FFF9BE1FE078FFCFFFFC0007
:1004000000000FFFFFF9FCFFE0F8FFCFFFFFFFFF49
:10041000FFFFFFFFF97BFFE0F8FFCFFFFFFFFFFFCC
:10042000FFFFFFF97FFFE0F8FFCFFFFFFFFFFFFFB8
:10043000FFFFFB7FFFE0F8FFCFFFFFFFFFFFFFFFA6
:10044000FFFBFFFFC1F8FFCF1FFFFFFFFFFFFFFF15
:10045000FAFFFFC1F8FFC78FFFFFEFFFFFFFFFFEAF
:10046000FFFF83F8FFC7C7FFFFCFFFFFFFFFF6FFC8
:10047000FF07F8FFE7E3FFFFC7FFFFFFFFFDFFFEFA
:1004800007F8FFE7F1FFFF87FFFFFFFFFDFFFC0F0E
:10049000F8FFE3F87FD807FBDFFFFFFDFFF81FF849
:1004A000FFE3F83FC007DBFFFFFFFBFFF03FF8FF74
:1004B000F3FE1FC00FFFFFFFFFFBFFE07FF8FFF120
:1004C000FE1FE00EFFFE3FFFF7FFC0FFF8FFF1FF4A
:1004D0000BE01E1FFF3CFFF7FF83FFF8FFF8FF0351
:1004E000F01E3FFF303FFFFE07FFF8FFF8FF87FFDA
:1004F0001E9FFF401FEFFC1FFFF8FFFC7FC7FFFEA2
:10050000DFFFF81FDFF07FFFF8FFFC7FE7FFFEFF54
:10051000FFFE1FDFE1FFFFF8FFFE3FFFFFFFFFFFD2
:10052000FF1FBF87FFFFF8FFFE3FFE7FFFFFFFFFBC
:100530001F3E3FFFFFF8FFFF1FFE03FFFFFFFF1FF0
:100540007DFFFFFFF8FFFF0FFFE0FFFFFFFF9EFFB4
:10055000FFFFFFF8FFFF87FFFFFFFFFFFFFCFFFF2D
:10056000FFFFF8FFFFC7FFFFFFFFFFFFF9FFFFFFE0
:10057000FFF8FFFFE3FFFFFFFFFFFFFBFFFFFFFFB2
:10058000F8FFFFF1FFFFFFFFFFFFF7FFFFFFFFF89F
:10059000FFFFF8FFFFFFFFFFFFEFFFFFFFFFF8FF89
:1005A000FFFC7FFFFFFFFFFF9FFFFFFFFFF8FFFF45
:1005B000FE3FFFFFFFFFFF3FFFFFFFFFF8FFFFFFD3
:1005C0000FFFFFFFFFFE7FFFFFFFFFF8FFFFFF872B
:1005D000FFFFFFFFF8FFFFFFFFFFF8FFFFFFC1FF77
:1005E000FFFFFFF1FFFFFFFFFFF8FFFFFFF07FFFBF
:1005F000FFFFC7FFFFFFFFFFF8FFFFFFFC1FFFFF2D
:10060000FF1FFFFFFFFFFFF8FFFFFFFF07FFFFFCDC
:100610003FFFFFFFFFFFF8FFFFFFFFC0FFFFC1FF2E
:10062000FFFFFFFFFFF8FFFFFFFFF803F007FFFFEB
:10063000FF3FFFFFF8FFF7FFFDFF00007FF7FFFF21
:100640003FFFFFF8FFE3FFFF3FFFFFFF9FFFFE1F9E
:10065000FFFFF8FFE3FFFFC7FFFFFC7FFFFE3FFF49
:10066000FFF8FFE1FFFFF80FFF03FFFFF83FFFFF79
:10067000F8FFE0FFFFFFC0007FFFFFF07FFFFFF804
:10068000FFF03FFFFFFFFFFFFFFF80FFFFFFF8FFCF
:10069000FC0FFFFFFFFFFFFFFE03FFFFFFF8FFFE62
:1006A00000FFFFFFFFFFFFE00FFFFFFFF8FFFFC0AE
:1006B0000FFFFFFFFFFE007FFFFFFFF8FFFFF800C7
:1006C0003FFFFFFF0007FFFFFFFFF8FFFFFF800076
:1006D000000000007FFFFFFFFFF8FFFFFFFE0000AC
:1006E00000001FFFFFFFFFFFF8FFFFFFFFFFE0031A
:1006F000FFFFFFFFFFFFFFF8FFFFFFFFFFFFFFFF11
:10070000FFFFFFFFFFFFF8FFFFFFFFFFFFFFFFFF00
:10071000FFFFFFFFFFF8FFFFFFFFFFFFFFFFFFFFF0
:10072000FFFFFFFFF8FFFFFFFFFFFFFFFFFFFFFFE0
:10073000FFFFFFF8FFFFFFFFFFFFFFFFFFFFFFFFD0
:10074000FFFFF8FFFFFFFFFFFFFFFFFFFFFFFFFFC0
:10075000FFFFFCFFFFFFFFFFFFFFFFFFFFFFFFFFAC
:10076000FFFFFCFFFFFFFFFFFFFFFFFFFFFFFFFF9C
:10077000FFFFFCFFFFFFFFFFFFFFFFFFFFFFFFFF8C
:10078000FFFFFCFFFFFFFFFFFFFFFFFFFFFFFFFF7C
:10079000FFFFFCFFFFFFFFFFFFFF0007FFFFFFFF63
:1007A000FFFFFCFFFFFFFFFFFFC000003FFFFFFF59
:1007B000FFFFFCFFFFFFFFFFFE007FFF01FFFFFFCA
:1007C000FFFFFCFFFFFFFFFFF8007FFE007FFFFF42
:1007D000FFFFFCFFFFFFFFFFCC003FFE001FFFFFFE
:1007E000FFFFFCFFFFFFFFFF38083FFC0007FFFF94
:1007F000FFFFFCFFFFFFFFFCF07F3FFC7E09FFFFD8
:10080000FFFFFCFFFFFFFFF3F1FF9FFDFF8EFFFFE8
:10081000FFFFFCFFFFFFFFEFF3FFFFFFFFC7BFFF7F
:10082000FFFFFCFFFFFFFF9FE7FFFFFFFFE7DFFF8B
:10083000FFFFFCFFFFFFFF3FEFFFFFFFFFF7E7FFBB
:10084000FFFFFCFFFFFFFEFFFFFFFFFFFFFFFBFFC0
:10085000FFFFFCFFFFFFFDFFFFFFFFFFFFFFFDFFAF
:10086000FFFFFCFFFFFFFBFFFFFFFFFFFFFFFEFFA0
:10087000FFFFFCFFFFFFF7FFFFFFFFFFFFFFFF7F13
:10088000FFFFFCFFFFFFEFFFF99FFFFFECFFFFBF44
:10089000FFFFFCFFFFFFDFFFEFEFFFFFBFBFFFDF4B
:1008A000FFFFFCFFFFFFBFFFDFFFFFFF7FEFFFEF5B
:1008B000FFFFFCFFFFFF7FFFFFFBFFFEFFF7FFF7E0
:1008C000FFFFFCFFFFFEFFFFFFFDFFFFFFFBFFFB46
:1008D000FFFFFCFFFFFDFFFEFFFDFFFDFFFFFFF938
:1008E000FFFFFCFFFFFDFFFDFFFFFFFDFFFDFFFD25
:1008F000FFFFFCFFFFFBFFFFF87EFFFFF07EFFFE28
:10090000FFFFFCFFFFF7FFFBE01EFFFFE03FFFFEE6
:100910007FFFFCFFFFFFFFFFC00FFFFBC01F7FFF3C
:100920007FFFFCFFFFEFFFF7800FFFFB800FFFFF54
:100930003FFFFCFFFFF7FFFF8787FFFB8787BFFFB6
:10094000FFFFFCFFFFDFFFEF1FC77FFB8FC7BFFF6E
:100950009FFFFCFFFFFFFFEF33C77FFF0F63FFFF2A
:10096000DFFFFCFFFF9FFFFE21477FFF1223DFFF1A
:10097000EFFFFCFFFFFFFFDE20277FFF1033DFFFCD
:10098000EFFFFCFFFF7FFFDE60277FFF0013FFFF0D
:10099000F7FFFCFFFF7FFFFE6027FFFB9013FFFFC9
:1009A000F7FFFCFFFEFFFFFE2047FFFB9033EFFF4A
:1009B000FFFFFCFFFEFFFFBE30CFFFFB8863FFFFA2
:1009C000FBFFFCFFFFFFFFBF1F8FFFFBCFE3FFFF1E
:1009D000FBFFFCFFFDFFFFBF1F1EFFFBC7C7EFFFB5
:1009E000FFFFFCFFFDFFFFFC041EFFFFE101F9FF1D
:1009F000FDFFFCFFFFFFFFFFE03EFFFDF01FFFFFDD
:100A0000FDFFFCFFFFFFFFFFFC7FFFFDF8FFFFFF87
:100A1000FDFFFCFFFFFFFFFFFF3FFFFDF7FFFFFFB5
:100A2000FFFFFCFFFBFFFFCFFFCDFFFFDFFFE1FF7D
:100A3000FEFFFCFFFBFBFF7FFFF5FFFF3FFFFDBF5E
:100A4000FEFFFCFFFFFFFE7FFFFBFFFEFFFFF9FF46
:100A5000FEFFFCFFFFFFFF7FFFFCFFFDFFFFF5FF39
:100A6000FEFFFCFFFFFFFBBFFFFEFFFBFFFFEDFFF5
:100A7000FEFFFCFFFFFFF6CFFFFF7FF7FFFFDDFF6D
:100A8000FEFFFCFFFFFFFEE7FFFFFFF7FFFF9DFFFD
:100A9000FEFFFCFFFFFFFEF3FFFFFFFFFFFF7DFFF9
:100AA000FEFFFCFFFFFFFEF9FFFFFFFFFFFCFDFF66
:100AB000FEFFFCFFFFFFFEFEFFFFFFFFFFF9FDFF54
:100AC000FEFFFCFFFFFFFEBF7FFFFFFFFFE5FDFF17
:100AD000FEFFFCFFFBFFFEFF1FFFFFFFFFDFF5FF39
:100AE000FEFFFCFFFBFFFEFFE7FFFFFFFE7FFDFFBA
:100AF000FEFFFCFFFBBFFEFFF9FFFFFFF97FFDFFDD
:100B0000FEFFFCFFFBFFFEFFFC7FFFFFCFFFDDFFD3
:100B1000FEFFFCFFFBFFFFFFFF8FFFFC3FFFFFFF20
:100B2000EEFFFCFFFAFFFFFFFFF1FFE3FFFF7BFF9C
:100B3000EEFFFCFFFAFFFF7FFFFE003FFFFCFBFF25
:100B4000F8FFFCFFF83FFF7EFFFFFFFFFFFDFBFF0D
:100B5000C7DFFCFFEFCFFF3FFFFFFFFFFFFDFBFF06
:100B600088EFFCFFDDC7FFBFFFFFFFFFFFFDF7FFC3
:100B70009FB7FCFFFFE3FFBFFFFFFFFFFFFFF7FF94
:100B8000BFF7FCFFBFFBFFBFFFFFFFFFFFFFF7FF4C
:100B90003FFFFCFFBFF9FF9FFFFFFFFFFFFFEFFFDE
:100BA0007FFFFCFF9FFDFFDFFBFFFFFFFF7FCFFE0F
:100BB0007FF7FCFFBFFDFFCFFDFFFFFFFF7FCFFEF5
:100BC0007FF7FCFFFFFDFFEFFFFFFFFFFFFFDFFAF7
:100BD000FFF7FCFFDFFDFFE7FFF7FFFFCFFFBFFEE3
:100BE000FFEFFCFFFFFDFFF7FFFFFFFF7FFF3FFC75
:100BF000FFEFFCFFEFFDFFFBFFFFFFFFFFFF7FFCB1
:100C0000FFDFFCFFFFFDFFF9FFFFFEFFFFFEFFC060
:100C10007FFFFCFFF7F00BFCFFFFFEFFFFFCFE3C3D
:100C200003BFFCFFF203E1FE7FFFFFFFFFF9FCFFC4
:100C3000F8BFFCFFF84FFCFF3FFFFFFFFFF3F9FF9A
:100C4000FE7FFCFFF9BFFE7F9FFFFFFFFFE7FBFF7B
:100C5000FCBFFCFFEE7FFF7FEFFFFFFFFFCFFBFF3F
:100C6000FF1FFCFFE7FFFF7FF3FFFFFFFF3FF3FFE7
:100C7000FF2FFCFFCBFFFF3FFCFFFFFFFE7FF3FFDB
:100C8000FF4FFCFFDFFFFF3FFF3FFFFFD1FFFA07F2
:100C9000FFDFFCFFAFFF837FFF83FFFF87FFB3F81A
:100CA0007FD7FCFF8FF03C7FFFF07EFC3FFFA7FF6C
:100CB00087F7FCFF8F8FFFBFFFFF8003FE7FEFFFF3
:100CC000FFE7FCFF9FFFFFDFFF9FFFFFF8FEEFFF47
:100CD000FFF7FCFFCFFFFFCFFFCFFFFFE3FFAFFF2B
:100CE000FFD7FCFFCFFFFFDFFFF8FFFF1FFFAFFFC6
:100CF000FFD7FCFFDFFFFFCFFFFF8001FFFFA7FF54
:100D0000FFF7FCFFDFFFFF8CFFFFFB7EFFFE97FF7F
:100D1000FFD7FCFFDFFFFFAEFFFFFFFFFFF830074D
:100D2000FFD7FCFFDFFF800FFFFFFFFFFFB8C3F817
:100D30007FD7FCFFDFF07ED1F7FFFFFFFEB9DFFFBB
:100D40000FC7FCFFD7C7FF63FFFFFFFFFFF637FFAB
:100D5000FFC7FCFFC7FFFF7285E7FFFFFA0CF7FF35
:100D6000FF17FCFFE3FFFF7C1DFFFFFFFE71FBFF92
:100D7000FFF7FCFFD9FFFF7F0000FFFC47C7FBFF29
:100D8000FD77FCFF81FFFEFFC0D1FFFCF89FFDFF58
:100D9000FC9FFCFFA43FFDFFF98030F0F4FFFF7ED5
:100DA000FDAFFCFFC0BFFBFFFF1ABF3447FFFF973B
:100DB000E01FFCFFE838CFFFFFF0C0387FFFFFF2F5
:100DC0000EBFFCFFF2363FFFFFFFC03FFFFFFFFCFF
:100DD00000FFFCFFFC01FFFFFFFFFFFFFFFFFFFF26
:100DE000FFFFFCFFFFFFFFFFFFFFFFFFFFFFFFFF16
:100DF000FFFFFCFFFFFFFFFFFFFFFFFFFFFFFFFF06
:100E0000FFFFFCFFFFFFFFFFFFFFFFFFFFFFFFFFF5
:100E1000FFFFFCFFFFFFFFFFFFFFFFFFFFFFFFFFE5
:100E2000FFFFFCFFFFFFFFFFFFFFFFFFFFFFFFFFD5
:100E3000FFFFFCFFFFFFFFFFFFFFFFFFFFFFFFFFC5
:100E4000FFFFFC00000000000000000000000000A8
:100E50000000000000000000000000000000000092
:100E60000000000000000000000000000000000082
:100E70000000000000000000000000000000000072
:100E80000000000000000000000000000000000062
:100E90000000000000000000000000000000000052
:100EA00000000000000000003E5B4F5B3E3E6B4FC9
:100EB0006B3E1C3E7C3E1C183C7E3C181C577D57EC
:100EC0001C1C5E7F5E1C00183C1800FFE7C3E7FF98
:100ED0000018241800FFE7DBE7FF30483A060E262B
:100EE00029792926407F050507407F05253F5A3C83
:100EF000E73C5A7F3E1C1C08081C1C3E7F14227FC6
:100F000022145F5F005F5F06097F017F006689959D
:100F10006A606060606094A2FFA29408047E040886
:100F200010207E201008082A1C08081C2A08081E09
:100F3000101010100C1E0C1E0C30383E3830060EEF
:100F40003E0E06000000000000005F0000000700E9
:100F50000700147F147F14242A7F2A1223130864A5
:100F60006236495620500008070300001C22410049
:100F70000041221C002A1C7F1C2A08083E08080089
:100F80008070300008080808080000606000201029
:100F90000804023E5149453E00427F4000724949E3
:100FA00049462141494D331814127F1027454545C4
:100FB000393C4A49493141211109073649494936E5
:100FC000464949291E00001400000040340000007A
:100FD00008142241141414141400412214080201AC
:100FE0005909063E415D594E7C1211127C7F4949D8
:100FF00049363E414141227F4141413E7F49494975
:10100000417F090909013E414151737F0808087F6A
:1010100000417F41002040413F017F081422417F71
:10102000404040407F021C027F7F0408107F3E4109
:1010300041413E7F090909063E4151215E7F091960
:101040002946264949493203017F01033F40404078
:101050003F1F2040201F3F4038403F631408146367
:1010600003047804036159494D43007F4141410223
:1010700004081020004141417F0402010204404065
:10108000404040000307080020545478407F284423
:1010900044383844444428384444287F385454540D
:1010A0001800087E090218A4A49C787F080404781C
:1010B00000447D40002040403D007F102844000057
:1010C000417F40007C047804787C0804047838442C
:1010D000444438FC1824241818242418FC7C0804E0
:1010E0000408485454542404043F44243C40402001
:1010F0007C1C2040201C3C4030403C4428102844AC
:101100004C9090907C4464544C440008364100005C
:1011100000770000004136080002010204023C266C
:1011200023263C1EA1A161123A4040207A38545433
:1011300055592155557941225454784221555478B6
:101140004020545579400C1E52721239555555594C
:10115000395454545939555454580000457C410071
:1011600002457D420001457C407D1211127DF02830
:101170002528F07C545545002054547C547C0A09A1
:101180007F4932494949323A4444443A324A48480C
:10119000303A4141217A3A42402078009DA0A07D1A
:1011A0003D4242423D3D4040403D3C24FF242448D6
:1011B0007E4943662B2FFC2F2BFF0929F620C08880
:1011C0007E090320545479410000447D4130484851
:1011D0004A32384040227A007A0A0A727D0D19316B
:1011E0007D2629292F28262929292630484D4020C7
:1011F000380808080808080808382F10C8ACBA2FA3
:10120000102834FA00007B000008142A142222144B
:101210002A14085500550055AA55AA55AAFF55FF8E
:1012200055FF000000FF00101010FF00141414FF01
:10123000001010FF00FF1010F010F0141414FC0048
:101240001414F700FF0000FF00FF1414F404FC1452
:101250001417101F10101F101F1414141F0010104B
:1012600010F0000000001F101010101F10101010C0
:10127000F010000000FF101010101010101010FFE0
:1012800010000000FF140000FF00FF00001F1017F7
:101290000000FC04F414141710171414F404F400E0
:1012A00000FF00F714141414141414F700F71414A6
:1012B00014171410101F101F141414F4141010F02D
:1012C00010F000001F101F0000001F14000000FCA1
:1012D000140000F010F01010FF10FF141414FF148D
:1012E0001010101F00000000F010FFFFFFFFFFF0C4
:1012F000F0F0F0F0FFFFFF0000000000FFFF0F0F15
:101300000F0F0F3844443844FC4A4A4A347E0202E4
:101310000606027E027E0263554941633844443C1E
:1013200004407E201E2006027E020299A5E7A599B0
:101330001C2A492A1C4C7201724C304A4D4D3030E7
:1013400048784830BC625A463D3E494949007E01D2
:1013500001017E2A2A2A2A2A44445F444440514AF1
:10136000444040444A51400000FF0103E080FF0038
:101370000008086B6B083612362436060F090F0674
:10138000000018180000001010003040FF0101009C
:101390001F01011E00191D1712003C3C3C3C0000BF
:1013A00000000000000000240027002A00000000C8
:1013B0000800020100000304070000000000000014
:1013C00000010204081020408001020408102001DE
:1013D000020408102000000000250028002B000453
:1013E00004040404040404020202020202030303CC
:1013F000030303006727482F11241FBECFEFD8E057
:10140000DEBFCDBF13E0A0E0B1E0E4EAF8E602C041
:1014100005900D92A237B107D9F725E0A2E7B3E016
:1014200001C01D92A132B207E1F719E0CBEFD9E07C
:1014300004C02197FE010E944832CA3FD107C9F774
:101440000E94D2280C9445340C9400008AB18C6F11
:101450008AB984B1836084B908950895E0911A042B
:10146000F0911B04309729F010922904109228045F
:10147000099408950895EDEDF4E0A1A1B2A18C9135
:1014800092A589238C9300C000C000C0000099B1D0
:1014900083B1A1A1B2A12C9136A1232B2C939C7FC7
:1014A0008370892B0895CF92DF92EF92FF92CF93B2
:1014B000DF93CDEDD4E0EB8DFC8D90812FA19223B5
:1014C0009083ED8DFE8D908128A5922390839BB112
:1014D0009370282F2C7F922B9BB995B19C7F8370A2
:1014E000892B85B9EF8DF8A1808199A58923808307
:1014F000EF8DF8A180819DA1892B80838AB18370B3
:101500008AB984B18C7F84B9ED8DFE8D80819CA1D8
:10151000892B808383EC90E00197F1F70E943B0ACE
:1015200090E0B0E0A0E0CC24D82EE92EFA2E0E9464
:101530003B0AC82AFE2CED2CDC2CCC240E943B0A52
:10154000C82AFE2CED2CDC2CCC240E943B0AC82A95
:10155000EB8DFC8D80819BA1892B80830E94260AC4
:10156000C701B601DF91CF91FF90EF90DF90CF9050
:101570000895809172039091730301969093730381
:101580008093720308950895AF92BF92CF92DF9235
:10159000EF92FF920F931F93CF93DF936C017B0128
:1015A0008B01040F151FEB015E01AE18BF08C017B9
:1015B000D10759F06991D601ED91FC910190F0812C
:1015C000E02DC6010995892B79F7C501DF91CF91EF
:1015D0001F910F91FF90EF90DF90CF90BF90AF9051
:1015E0000895FC01538D448D252F30E0842F90E029
:1015F000821B930B541710F0CF960895019708950E
:10160000FC01918D828D981761F0A28DAE0FBF2FD6
:10161000B11D5D968C91928D9F5F9F73928F90E02C
:1016200008958FEF9FEF0895FC01918D828D98179B
:1016300031F0828DE80FF11D858D90E008958FEFD8
:101640009FEF0895FC01918D228D892F90E0805CA1
:101650009F4F821B91098F73992708958CE294E024
:101660000E94220B21E0892B09F420E0822F0895AB
:1016700080E090E0892B29F00E942E0B81110C94C0
:1016800000000895FC01A48DA80FB92FB11DA35A25
:10169000BF4F2C91848D90E001968F739927848F92
:1016A000A689B7892C93A089B1898C9183708064B5
:1016B0008C93938D848D981306C00288F389E02D56
:1016C00080818F7D80830895EF92FF920F931F9307
:1016D000CF93DF93EC0181E0888F9B8D8C8D9813E5
:1016E0001AC0E889F989808185FF15C09FB7F894F1
:1016F000EE89FF896083E889F9898081837080643D
:1017000080839FBF81E090E0DF91CF911F910F9187
:10171000FF90EF900895F62E0B8D10E00F5F1F4F96
:101720000F731127E02E8C8D8E110CC00FB607FCA5
:10173000FACFE889F989808185FFF5CFCE010E9433
:10174000420BF1CFEB8DEC0FFD2FF11DE35AFF4F54
:10175000F0829FB7F8940B8FEA89FB8980818062C1
:10176000CFCFCF93DF93EC01888D8823B9F0AA897E
:10177000BB89E889F9898C9185FD03C0808186FD4C
:101780000DC00FB607FCF7CF8C9185FFF2CF80819B
:1017900085FFEDCFCE010E94420BE9CFDF91CF91C3
:1017A000089590E0FC01E355FC4E2491FC01EF53B9
:1017B000FC4E3491FC01E152FC4EE491EE23C9F061
:1017C000222339F0233001F1A8F4213019F122301D
:1017D00029F1F0E0EE0FFF1FEB52FC4EA591B49102
:1017E0008FB7F894EC91611126C030953E233C935D
:1017F0008FBF08952730A9F02830C9F0243049F769
:10180000809180008F7D03C0809180008F778093CE
:101810008000DFCF84B58F7784BDDBCF84B58F7D2B
:10182000FBCF8091B0008F778093B000D2CF8091B2
:10183000B0008F7DF9CF3E2BDACFCF93DF9390E0CE
:10184000FC01EF53FC4E249181529C4EFC0184918B
:101850008823D1F090E0880F991FFC01ED55FC4ED4
:10186000A591B491FC01EB52FC4EC591D49161114C
:101870000EC09FB7F8948C91E22FE0958E238C9345
:101880002881E223E8839FBFDF91CF9108958FB72E
:10189000F894EC91E22BEC938FBFF6CF8E3008F0EA
:1018A0008E508770806480937C0080917A00806481
:1018B00080937A0080917A0086FDFCCF8091780039
:1018C0009091790008953FB7F89480910904909120
:1018D0000A04A0910B04B0910C0426B5A89B05C086
:1018E0002F3F19F00196A11DB11D3FBFBA2FA92F9F
:1018F000982F8827BC01CD01620F711D811D911D9C
:1019000042E0660F771F881F991F4A95D1F7089507
:101910008F929F92AF92BF92CF92DF92EF92FF92FF
:101920006B017C010E94630C4B015C01C114D1046A
:10193000E104F104B9F00E94630C681979098A097D
:101940009B09683E73408105910580F321E0C21A2E
:10195000D108E108F10888EE880E83E0981EA11CEA
:10196000B11CE4CFFF90EF90DF90CF90BF90AF908D
:101970009F908F900895E091F804F091F904808190
:1019800090910005892B8083E091FC04F091FD0487
:10199000808190910205892B8083E091FE04F09173
:1019A000FF04808190910305892B80838091080535
:1019B000882371F060E00E94D10B62E070E080E06B
:1019C00090E00E94880C61E0809108050E94D10B94
:1019D000E091F804F091F904808190910405892345
:1019E0008083E091FA04F091FB04808190910505D9
:1019F000892380838BB183708BB985B18C7F85B946
:101A0000E091FC04F091FD0480819091060589230A
:101A10008083E091FC04F091FD04808190910205A7
:101A2000892B808383E0E091FC04F091FD04908198
:101A30002091060592239083E091FC04F091FD042F
:101A4000908120910205922B9083815061F7E09163
:101A5000F804F091F904808190910005892B80832E
:101A600008952091BE03260F3327331F21323105FD
:101A7000ECF42091E203FC0190E080E0243069F076
:101A800082E00895A091BE032191AC0142565C4FC3
:101A9000A40FB52FB11D2C930196861798F3809152
:101AA000BE03680F6093BE0380E0089581E008954F
:101AB0001092E20381E08093E4031092E30361E07B
:101AC00082E10E94D10B61E083E10E94D10BE9EB3E
:101AD000F0E080818E7F808380818D7F808388E4A9
:101AE0008093B80085E48093BC000895E0912B04B6
:101AF00080912A04E81730F4F0E0E858FC4F808128
:101B000090E008958FEF9FEF089590912B048091BE
:101B10002A042FEF3FEF981748F4E92FF0E0E85838
:101B2000FC4F208130E09F5F90932B04C901089502
:101B300080912A0490912B04891B990B0895CF93CF
:101B4000DF93CB01EA01642F0E94310DCE01DF91BA
:101B5000CF910895CF93DF931F92CDB7DEB76983FE
:101B600061E0CE0101960E94310D81E090E00F907E
:101B7000DF91CF9108950895FC016370658B848196
:101B8000958126813781613039F0633029F0918762
:101B900080873387228708953187208793878287BC
:101BA00008952F923F924F925F926F927F928F9201
:101BB0009F92AF92BF92CF92DF92EF92FF920F93DC
:101BC0001F93CF93DF93CDB7DEB769970FB6F89425
:101BD000DEBF0FBECDBF998F888F5B011A01D22E59
:101BE0001F830E833701C982DC0158962D913C91E9
:101BF00059972115310509F004C118968D919C91D2
:101C00001997681779070CF0C0C11A968D919C91AD
:101C10001B97481759070CF0B8C18C2C912CFB016D
:101C200026E0C29EE00DF11D1124F987E8871E16FB
:101C30001F060CF0AAC1A40193E0440F551F9A950A
:101C4000E1F75D874C87CA01820D931D18161906AE
:101C50000CF09BC157968C91811104C05FEA5D1511
:101C600008F4D394A88DB98DED91FC91119702845D
:101C7000F385E02DCD010995F5013596F98BE88BBB
:101C8000BB82AA82250183EA9EE08A199B099C01F6
:101C900045E0D49E200D311D11243B8B2A8BEA890F
:101CA000FB89E40DF51D24913D822C82D12CC12CA1
:101CB000622F70E07F876E87E88DF98DA081B181FA
:101CC00020FF7CC0F981F13009F069C01C96ED91CC
:101CD000FC912E813F81A1014C0D5D1DB201888DCB
:101CE000998D0995EE85FF85F595E7952E2F4FEF98
:101CF000C41AD40A6C817D81680D791D7D836C8343
:101D000078E0C716D104A1F68FEF481A580AAA81C5
:101D1000BB81A80DB91DBB83AA83E889F989E415A5
:101D2000F50509F0BCCF2E813F8126153705A9F0B6
:101D3000A88DB98DED91FC91B981B13009F051C0F8
:101D4000B5016B5F7F4F0088F189E02D830128E0AA
:101D500030E0A101888D998D0995A88DB98DED91FF
:101D6000FC9111970688F789E02DCD0169960FB691
:101D7000F894DEBF0FBECDBFDF91CF911F910F91C1
:101D8000FF90EF90DF90CF90BF90AF909F908F909B
:101D90007F906F905F904F903F902F9009941E9688
:101DA000ED91FC91EE80FF80840194014C815D8176
:101DB0006A817B81888D998D099594CF2E813F8191
:101DC0002615370509F48ECF3981313029F41C9658
:101DD000ED91FC9193017FCF1E96ED91FC917301E3
:101DE000E3CF68857985681979090684F785E02D40
:101DF00073010C851D859401A101888D998D09952C
:101E0000ACCFF90134969491329745915491D91AF7
:101E1000B7E0DB9E400D511D1124F901259134914D
:101E2000398B288BFA0145905490FA0132966490D0
:101E30003196C490329614913196049139813230A2
:101E400008F48AC0E12E012E000CFF08402F002E5E
:101E5000000C550B59874887A88DB98DED91FC91E1
:101E600011970284F385E02DCD010995B9818B2E60
:101E7000912CE89CC001E99C900DF89C900D1124D8
:101E8000FC01EA0DFB1DFF87EE871C82D12C712C13
:101E90009B868A869101200F311D07FD3A953D8B67
:101EA0002C8BA501410F511D17FD5A955F8B4E8B51
:101EB0007C1408F052CF872D90E048855985480F53
:101EC000591F6A857B85469F9001479F300D569F1D
:101ED000300D1124D901A20DB31DBD87AC87EE854D
:101EE000FF85FB83EA83B12CA12C2C893D89280F27
:101EF000391F3B8B2A8B8C818A0DA61408F040C0B9
:101F0000877041F4C2010196E889F989E40DF51D55
:101F1000D4902C01D7FE15C0A88DB98DED91FC9100
:101F2000B981B130F1F40484F585E02D2E813F8133
:101F30004A895B896E897F896A0D7B1D888D998DA1
:101F40000995DD0CEFEFAE1ABE0A2A813B81280D00
:101F5000391D3B832A83CFCF19861886F12CE12CBB
:101F60007BCF0684F785E02DEE80FF80840194010D
:101F70004C855D856A817B81888D998D0995E1CF3E
:101F80003C81360D3C83739493CF69960FB6F894D9
:101F9000DEBF0FBECDBFDF91CF911F910F91FF909C
:101FA000EF90DF90CF90BF90AF909F908F907F90F9
:101FB0006F905F904F903F902F900895AF92BF9297
:101FC000CF92EF92FF920F931F93CF93DF93EC0189
:101FD000262F888D998D009709F04FC06A30C9F47B
:101FE0001D861C868C8998E0899F900111248E851E
:101FF0009F85820F931F9F878E8781E090E0DF91FE
:10200000CF911F910F91FF90EF90CF90BF90AF9025
:1020100008956D3091F3CC888E898823C1F08C852A
:102020009D85E6E0CE9E800D911D11244885598541
:102030004817590764F44E855F851D861C86F8E0B5
:10204000CF9EC0011124840F951F9F878E87EA8839
:10205000FB88088919894E855F856C857D85CE0151
:102060000E94D10D2C898C859D8536E0239F800DA3
:10207000911D11249D878C87C0CF6A3069F41D861D
:102080001C86FC013696E4912C898E859F85E29F03
:10209000800D911D1124AFCF6D3009F4AECFFC013E
:1020A00034963491631708F4A8CF3196E491E6177B
:1020B00008F4A3CFFC01329645915491E62FE31B1F
:1020C000FF0B37E03E9F50013F9FB00C1124A40E40
:1020D000B51EF501329634913196E4913323A1F186
:1020E000EE2391F1CC88F5013596E4914E89442395
:1020F00001F10E2E000CFF0BE30FF11DCE9EA0018F
:10210000CF9E500D11246C857D85460F571F688525
:102110007985641775076CF44E855F851D861C866E
:102120000696FC018491C89E400D511D11245F87C5
:102130004E87EA88FB88088919894E855F856C85FA
:102140007D85CE010E94D10DF5013496E4912C8954
:102150008C859D85E29F800D911D11248BCF6F9200
:102160007F928F929F92AF92BF92CF92DF92EF9227
:10217000FF920F931F93CF93DF93EC016B015A01F2
:1021800039014801E881F9810284F385E02D099540
:10219000E881F9810288F389E02D87019301A50187
:1021A000B601CE010995A501480D591D41505109AF
:1021B000E881F9810288F389E02D9301B601CE010F
:1021C0000995E881F9810088F189E02D9401A50144
:1021D000B601CE010995C60CD71CB6016150710934
:1021E000E881F9810088F189E02D9401A501CE01F3
:1021F0000995E881F9810688F789E02DCE01DF9104
:10220000CF911F910F91FF90EF90DF90CF90BF90F3
:10221000AF909F908F907F906F9009946F927F9274
:102220008F929F92AF92BF92CF92DF92EF92FF92E6
:102230000F931F93CF93DF935C01EB016A01490178
:1022400038018701DC01ED91FC916217730719F5E4
:10225000641675062CF0962D872D3A01C92ED82EBE
:102260009601261937092F5F3F4F048CF58DE02D1D
:10227000A301BE01C5010995DF91CF911F910F9177
:10228000FF90EF90DF90CF90BF90AF909F908F9096
:102290007F906F9008954615570591F426173707DC
:1022A00024F0892D4B01C22FD82F9E0128193909FE
:1022B0002F5F3F4F068CF78DE02DA601B401DACFDA
:1022C0000284F385E02D0995D501ED91FC910488F8
:1022D000F589E02D83019401A601BE01C501099590
:1022E000D501ED91FC910688F789E02DC501DF91BC
:1022F000CF911F910F91FF90EF90DF90CF90BF9003
:10230000AF909F908F907F906F900994EF92FF9283
:102310000F931F93DC011A960D911C911B97189631
:102320002D913C911997ED91FC9100A0F1A1E02D28
:102330007B0150E040E070E060E009951F910F9153
:10234000FF90EF9008954F925F926F927F928F92DD
:102350009F92AF92BF92CF92DF92EF92FF920F9334
:102360001F93CF93DF936C012B015A013901480170
:10237000DC01ED91FC910284F385E02D0995E201E9
:10238000640C751CD601ED91FC91C615D7055CF463
:102390000088F189E02D87019401A501BE01C601E5
:1023A00009952196EFCF0688F789E02DC601DF91C8
:1023B000CF911F910F91FF90EF90DF90CF90BF9042
:1023C000AF909F908F907F906F905F904F90099407
:1023D0008F929F92AF92BF92CF92DF92EF92FF9235
:1023E0000F931F93CF93DF93EC015B014A016901C7
:1023F000E881F9810284F385E02D099595012C0D82
:102400003D1D21503109E881F9810488F589E02DCD
:1024100078018401A401B501CE010995E881F98113
:102420000688F789E02DCE01DF91CF911F910F91A2
:10243000FF90EF90DF90CF90BF90AF909F908F90E4
:1024400009948F929F92AF92BF92CF92DF92EF92B8
:10245000FF920F931F93CF93DF93EC015B014A012F
:1024600069017801E881F9810284F385E02D0995FD
:10247000C80CD91C860101501109E881F981048832
:10248000F589E02D9501A401B501CE010995E881FA
:10249000F9810688F789E02DCE01DF91CF911F9158
:1024A0000F91FF90EF90DF90CF90BF90AF909F90F3
:1024B0008F900994EF92FF920F931F93DC01ED919F
:1024C000FC9100A0F1A1E02D09951F910F91FF90C3
:1024D000EF9008950F931F93DC01ED91FC91068C12
:1024E000F78DE02D09951F910F9108950F931F937C
:1024F000DC01ED91FC91048CF58DE02D09951F9187
:102500000F9108952F923F924F925F926F927F9218
:102510008F929F92AF92BF92CF92DF92EF92FF92F3
:102520000F931F93CF93DF93CDB7DEB72B970FB6E3
:10253000F894DEBF0FBECDBF3C017E836D835B8709
:102540004A872F832801170181E090E06C01C41AAB
:10255000D50ACA019195819591099C01220F331FDB
:102560003A832983C80101969C838B83F12CE12C4B
:1025700088248394912C9B012F5F3F4F39872887B4
:102580008A859B85E816F9060CF06DC0AA84BB8489
:10259000D7FC0CC05C0191E0A91AB10829813A81ED
:1025A0002E5F3F4F3A832983C20ED31E3FEFE31ABB
:1025B000F30A82E0880E911CC80CD91CAE14BF042B
:1025C00044F42A853B852A153B05D1F4BB86AA86AF
:1025D000D7CF9501220F331F4D815E814A195B09C8
:1025E0008F81813019F58B819C81280F391F8101E2
:1025F000B701660D771D8DED94E00E947612E1CF54
:102600009F81913029F5940122503109240D351D07
:102610006A857B85660D771D8101488559854E1930
:102620005F098DED94E00E947612D0CF8B819C8162
:10263000280F391F8101B3016E197F098DED94E0D8
:102640000E9476122A853B852A153B0509F4BECFE8
:10265000940122503109240D351DB3018A859B85D3
:10266000681B790BD9CF2B960FB6F894DEBF0FBE3F
:10267000CDBFDF91CF911F910F91FF90EF90DF9031
:10268000CF90BF90AF909F908F907F906F905F9012
:102690004F903F902F9008952F923F924F925F92CC
:1026A0006F927F928F929F92AF92BF92CF92DF9262
:1026B000EF92FF920F931F93CF93DF9300D000D040
:1026C000CDB7DEB71C012B015C834B835901680138
:1026D0004701421753074CF4CA0157FD01969595DF
:1026E00087958C159D050CF46C013601660C771CE2
:1026F0009601220D331D3A8329832B813C812619B3
:10270000370974018501A20169817A818DED94E018
:102710000E945A12A618B70831E0A31AB1084C0C4F
:102720005D1C8B819C81820D931D8C199D098501F7
:1027300021E0A601B20101970E94821222E0A601C7
:10274000B20189819A810E9482120F900F900F909E
:102750000F90DF91CF911F910F91FF90EF90DF903D
:10276000CF90BF90AF909F908F907F906F905F9031
:102770004F903F902F900895DC01ED91FC910084E3
:10278000F185E02D09945F926F927F928F929F92D4
:10279000AF92BF92CF92DF92EF92FF920F931F936F
:1027A000CF93DF934C015B016B0187E0C80ED11C16
:1027B00093E0D594C7949A95E1F73A0183E3680EC4
:1027C000711CF12CE12C512C03E310E0D0E0C0E0AF
:1027D000CE0187709927550C892B59F4FE0183E0AF
:1027E000F595E7958A95E1F7EE0DFF1DE80DF91DCA
:1027F0005490852D052C000C990B80959095292FD0
:10280000220F220B322FBE0167597F4FA8018DED99
:1028100094E00E94BC132196AC16BD06C9F60F5F6A
:102820001F4FEC0CFD1C0615170581F6DF91CF91AB
:102830001F910F91FF90EF90DF90CF90BF90AF90DE
:102840009F908F907F906F905F9008952F923F920E
:102850004F925F926F927F928F929F92AF92BF92B0
:10286000CF92DF92EF92FF920F931F93CF93DF935C
:1028700000D000D0CDB7DEB76C015B015C834B8329
:1028800081E090E04C01841A950A2A015194419408
:102890005108440C551CF12CE12C66246394712CD6
:1028A000422F44704983522F52705A83822F88706E
:1028B000282E2170322E4B815C81E416F5060CF037
:1028C00083C097FC09C0415051095C834B8352E09F
:1028D000450E511C840C951C8FEFE81AF80A92E003
:1028E000690E711C860C971C49814423C1F0980124
:1028F0004B815C814A0D5B1DB6016E0D7F1D8DED18
:1029000094E00E94BC139801A5014E0D5F1D6B81E0
:102910007C816C0D7D1D8DED94E00E94BC135A816D
:102920005523C9F09801A5018B819C81481B590B47
:10293000B6016E0D7F1D8DED94E00E94BC139801D1
:10294000A5014E195F096B817C816C0D7D1D8DED9C
:1029500094E00E94BC132220C9F09801A5014E0DFD
:102960005F1DB6018B819C81681B790B8DED94E016
:102970000E94BC1398014B815C814A0D5B1DB6011E
:102980006E197F098DED94E00E94BC13332009F489
:1029900092CF9801A5014E195F09B6018B819C81E8
:1029A000681B790B8DED94E00E94BC139801A50182
:1029B0008B819C81481B590BB6016E197F098DEDE7
:1029C00094E00E94BC1377CF0F900F900F900F9060
:1029D000DF91CF911F910F91FF90EF90DF90CF90FB
:1029E000BF90AF909F908F907F906F905F904F902F
:1029F0003F902F9008952F923F924F925F926F9247
:102A00007F928F929F92AF92BF92CF92DF92EF927E
:102A1000FF920F931F93CF93DF933C017B012A0119
:102A200069014A0180E1881A9108530188E0A80EE3
:102A3000B11C9401AB01B5018DED94E00E946A12C6
:102A400016012E0C3F1CA101415051099401B50102
:102A50008DED94E00E946A1280E1C81AD10888E0E6
:102A6000E80EF11C9601A701B3018DED94E00E94E0
:102A70007612640C751CB301615071099601A701AF
:102A80008DED94E00E94761221E048E050E0B7011D
:102A9000C5010E94261489E0681A710822E048E006
:102AA00050E0B701C3010E94261489E0281A3108BA
:102AB00024E048E050E0B101C3010E94261428E060
:102AC00048E050E0B101C5010E942614DF91CF918A
:102AD0001F910F91FF90EF90DF90CF90BF90AF903C
:102AE0009F908F907F906F905F904F903F902F902E
:102AF00008952F923F924F925F926F927F928F92A2
:102B00009F92AF92BF92CF92DF92EF92FF920F937C
:102B10001F93CF93DF9300D000D000D0CDB7DEB7A6
:102B20003C016A013E832D83FC82EB825801A41A8A
:102B3000B50AB7FE03C0B194A194B1088D809E8000
:102B4000861A970A97FE03C09194819491088A147B
:102B50009B045CF0902F812F0D811E819D838E83BD
:102B60009C2D8D2D6B01692F782F0C151D055CF0A8
:102B70009D818E817E836D83692F782F902F812F89
:102B80008601C92ED82E1601201A310A2B012D815B
:102B90003E81421A530A57FE03C051944194510892
:102BA000710137FE03C03FEFE31AF30AF594E7948F
:102BB0008D819E81861797075CF5A1E0B0E0BA830E
:102BC000A983C016D1064CF1D301ED91FC91048488
:102BD000F585E02D2B813C81A8016D817E818A14D1
:102BE0009B041CF04D815E81B801C3010995E41876
:102BF000F508F7FE0AC02D813E8189819A81280F50
:102C0000391F3E832D83E20CF31C0F5F1F4FD9CF7A
:102C10002FEF3FEF3A832983D4CF26960FB6F8944F
:102C2000DEBF0FBECDBFDF91CF911F910F91FF90FF
:102C3000EF90DF90CF90BF90AF909F908F907F905C
:102C40006F905F904F903F902F900895CF92DF92BA
:102C5000EF92FF92FC01A38DB48D8C9197A18923F3
:102C60008C93A58DB68D8C9190A589238C938BB177
:102C7000837088628BB985B18C7F6370682B65B96E
:102C8000A78DB0A18C9191A589238C93A78DB0A11C
:102C90008C9195A1892B8C93A58DB68D8C9194A147
:102CA000892B8C9383E290E0DC011197F1F77BB1E3
:102CB000C52EDD24EE24FF2473706C2D6C7F762BE3
:102CC0007BB965B16C7F7C2D7370672B65B9A78D5F
:102CD000B0A16C9171A567236C93A78DB0A16C9185
:102CE00075A1672B6C93DC011197F1F77BB16A0139
:102CF000EE24FF2473706C2D6C7F762B7BB965B14D
:102D00006C7F7C2D7370672B65B9A78DB0A16C911A
:102D100071A567236C93A78DB0A16C9175A1672BEA
:102D20006C93DC011197F1F77BB1C32ED42EE52E05
:102D3000FF2473706C2D6C7F762B7BB965B16C7F33
:102D40007C2D7370672B65B9A78DB0A16C9171A5AF
:102D500067236C93A78DB0A16C9175A1672B6C93C1
:102D60000197F1F78BB18370922F9C7F892B8BB9E0
:102D700085B18C7F2370282B25B9A78DB0A18C91AC
:102D800091A589238C93A78DB0A18C9195A1892BB6
:102D90008C93A38DB48D8C9193A1892B8C93FF90F0
:102DA000EF90DF90CF900895FC01A58DB68D8C91AA
:102DB00090A589238C938BB18370962F9C7F892B50
:102DC0008BB985B18C7F6370682B65B9A78DB0A175
:102DD0008C9191A589238C93A78DB0A18C9195A1FD
:102DE000892B8C93A58DB68D8C9194A1892B8C9376
:102DF0008BB18370932F9C7F892B8BB985B18C7F8E
:102E00003370382B35B9A78DB0A18C9191A589234A
:102E10008C93A78DB0A18C9195A1892B8C93A58DB6
:102E2000B68D8C9190A589238C938BB18370942F50
:102E30009C7F892B8BB985B18C7F4370482B45B91A
:102E4000A78DB0A18C9191A589238C93A78DB0A15A
:102E50008C9195A1892B8C93A58DB68D8C9194A185
:102E6000892B8C938BB18370922F9C7F892B8BB98C
:102E700085B18C7F2370282B25B9A78DB0A18C91AB
:102E800091A589238C93A78DB0A18C9195A1892BB5
:102E90008C930895FC01A58DB68D8C9190A5892306
:102EA0008C938BB18370972F9C7F892B8BB985B1C5
:102EB0008C7F7370782B75B9A78DB0A18C9191A57B
:102EC00089238C93A78DB0A18C9195A1892B8C938C
:102ED0008BB18370962F9C7F892B8BB985B18C7FAA
:102EE0006370682B65B9A78DB0A18C9191A58923DA
:102EF0008C93A78DB0A18C9195A1892B8C93A58DD6
:102F0000B68D8C9194A1892B8C938BB18370952F66
:102F10009C7F892B8BB985B18C7F5370582B55B909
:102F2000A78DB0A18C9191A589238C93A78DB0A179
:102F30008C9195A1892B8C938BB18370942F9C7F5E
:102F4000892B8BB985B18C7F4370482B45B9A78DF0
:102F5000B0A18C9191A589238C93A78DB0A18C9160
:102F600095A1892B8C930895FC01A58DB68D8C912C
:102F700090A589238C938BB18370962F9C7F892B8E
:102F80008BB985B18C7F6370682B65B9A78DB0A1B3
:102F90008C9191A589238C93A78DB0A18C9195A13B
:102FA000892B8C93A58DB68D8C9194A1892B8C93B4
:102FB0008BB18370942F9C7F892B8BB985B18C7FCB
:102FC0004370482B45B9A78DB0A18C9191A5892359
:102FD0008C93A78DB0A18C9195A1892B8C9308958A
:102FE000AF92BF92CF92DF92EF92FF920F931F9317
:102FF000CF93DF93FC01A38DB48D8C9197A189238E
:103000008C93A58DB68D8C9190A589238C93828D00
:10301000823009F0C6C08BB183708C628BB985B1E8
:103020008C7F85B9A78DB0A18C9191A589238C93B4
:10303000A78DB0A18C9195A1892B8C93A58DB68D70
:103040008C9194A1892B8C938BB1D72FDC7F8370CB
:103050008D2B8BB985B1C72FC3708C7F8C2B85B915
:10306000A78DB0A18C9191A589238C93A78DB0A138
:103070008C9195A1892B8C938BB1962F9C7FB92E27
:103080008370892B8BB985B1A62FA370AA2E8C7F54
:103090008A2B85B9078D10A1D8018C9191A5892320
:1030A0008C93078D10A1D8018C9195A1892B8C93BD
:1030B000215031094109510969017A0186E0F694EC
:1030C000E794D794C7948A95D1F77613A6C0B1E058
:1030D000CB1AD10808F484C060E1A78DB0A17C911F
:1030E000C1A57C237C93A78DB0A17C91C5A17C2B2D
:1030F0007C93A78DB0A17C91C1A57C237C93A78DE7
:10310000B0A17C91C5A17C2B7C93A78DB0A17C91B3
:10311000C1A57C237C93A78DB0A17C91C5A17C2BFC
:103120007C93A78DB0A17C91C1A57C237C93A78DB6
:10313000B0A17C91C5A17C2B7C93A78DB0A17C9183
:10314000C1A57C237C93A78DB0A17C91C5A17C2BCC
:103150007C93A78DB0A17C91C1A57C237C93A78D86
:10316000B0A17C91C5A17C2B7C93A78DB0A17C9153
:10317000C1A57C237C93A78DB0A17C91C5A17C2B9C
:103180007C93A78DB0A17C91C1A57C237C93A78D56
:10319000B0A17C91C5A17C2B7C93615009F09DCF9F
:1031A00096CF81111AC08BB183708BB985B18C7F9A
:1031B00085B9A78DB0A18C9191A589238C93A78DFA
:1031C000B0A18C9195A1892B8C938BB18370806277
:1031D0008BB985B18C7F826024CF8330B1F71BCF50
:1031E0002F73215008F403C1A78DB0A18C9191A534
:1031F00089238C93A78DB0A18C9195A1892B8C9359
:10320000A78DB0A18C9191A589238C93A78DB0A196
:103210008C9195A1892B8C93E4CF91E0C91AD108A8
:1032200008F4B5C070E16BB163706D2B6BB965B11B
:103230006C7F6C2B65B9078D10A1D8016C91F1A43E
:103240006F216C93078D10A1D8016C91F5A06F29A7
:103250006C936BB163706B296BB965B16C7F6A2934
:1032600065B9078D10A1D8016C91F1A46F216C9301
:10327000078D10A1D8016C91F5A06F296C936BB1EB
:1032800063706D2B6BB965B16C7F6C2B65B9078D65
:1032900010A1D8016C91F1A46F216C93078D10A13E
:1032A000D8016C91F5A06F296C936BB163706B2999
:1032B0006BB965B16C7F6A2965B9078D10A1D8011A
:1032C0006C91F1A46F216C93078D10A1D8016C91C2
:1032D000F5A06F296C936BB163706D2B6BB965B101
:1032E0006C7F6C2B65B9078D10A1D8016C91F1A48E
:1032F0006F216C93078D10A1D8016C91F5A06F29F7
:103300006C936BB163706B296BB965B16C7F6A2983
:1033100065B9078D10A1D8016C91F1A46F216C9350
:10332000078D10A1D8016C91F5A06F296C936BB13A
:1033300063706D2B6BB965B16C7F6C2B65B9078DB4
:1033400010A1D8016C91F1A46F216C93078D10A18D
:10335000D8016C91F5A06F296C936BB163706B29E8
:103360006BB965B16C7F6A2965B9078D10A1D80169
:103370006C91F1A46F216C93078D10A1D8016C9111
:10338000F5A06F296C93715009F04DCF46CF2F7384
:10339000215068F18BB183708D2B8BB985B18C7FF7
:1033A0008C2B85B9478D50A1DA018C9191A5892389
:1033B0008C93478D50A1DA018C9195A1892B8C9328
:1033C0008BB183708B298BB985B18C7F8A2985B9A4
:1033D000478D50A1DA018C9191A589238C93478D5B
:1033E00050A1DA018C9195A1892B8C93D1CFA38D1B
:1033F000B48D8C9193A1892B8C93DF91CF911F91E8
:103400000F91FF90EF90DF90CF90BF90AF90089515
:10341000CF93DF93EC01EB8DFC8D80819FA18923FD
:103420008083288539852150310945E064E0CE014B
:103430000E94D4162A853B852150310949E068E075
:10344000CE010E94D416EB8DFC8D80819BA1892B2F
:103450008083DF91CF9108958F929F92AF92BF9218
:10346000CF92DF92EF92FF920F931F93CF93DF9350
:10347000EC017A016901EB8DFC8D80819FA189238C
:1034800080838A8D811171C08D89823009F44BC08F
:10349000833009F45CC05A014B01813069F48FEE2E
:1034A00090E09C01201B310B4C01841A950A5B01B2
:1034B000860164017B01B901AB0160E570E0CE01DA
:1034C0000E944A17A60161E570E0CE010E944A17EA
:1034D000A70162E570E0CE010E944A17A80163E5EA
:1034E00070E0CE010E944A17A40160E270E0CE01B4
:1034F0000E944A17A50161E270E0CE010E944A17BE
:10350000EB8DFC8D80819BA1892B8083DF91CF91F6
:103510001F910F91FF90EF90DF90CF90BF90AF90F1
:103520009F908F9008958FEE90E09C012C193D099B
:103530006C01C61AD70A8FE391E0AC01401B510B16
:103540008C010E191F09580146017A01B4CF8FE38F
:1035500091E09C012C193D095C01A61AB70A4A01A9
:1035600068018501B7017901A7CF8130C9F49B01BA
:1035700043E062E0CE010E94D416970147E066E086
:10358000CE010E94D416960145E064E0CE010E946F
:10359000D416980149E068E0CE010E94D416B0CF5D
:1035A0008250823008F0ACCFCB01770FAA0BBB0B57
:1035B000DC01992788279601DD0C440B550B282B3D
:1035C000392B4A2B5B2B6AE2CE010E942616C701DB
:1035D000FF0CAA0BBB0BDC0199278827012E000CDE
:1035E000220B330BA9019801282B392B4A2B5B2B7B
:1035F0006BE2CE010E94261683CFEF92FF920F93CB
:103600001F93CF93DF93EC010E94BC0DEB8DFC8DDB
:1036100080819FA1892380838A8D811121C0ED89BA
:10362000E15040E350E1E33038F4F0E0EE0FFF1FEB
:10363000E25DFE4F4081518163E070E0CE010E9467
:103640004A170A851B8501501109288539852150A3
:10365000310950E040E070E060E0CE010E942C1A99
:103660008A8D813081F4ED89E15040E0E33020F42F
:10367000F0E0E55DFE4F408166E1CE010E94B417A7
:10368000CE010E94081A8A8D8230F1F48D89813032
:1036900009F449C008F444C08230E1F18330E9F113
:1036A0004E2D66E3CE010E94B4170A851B8501509A
:1036B0001109288539852150310950E040E070E03A
:1036C00060E0CE010E942C1A8A8D8330E1F48D894E
:1036D0008130A1F180F1823049F1833049F14F2DE1
:1036E00066E3CE010E94B4170A851B8501501109BB
:1036F000288539852150310950E040E070E060E0D4
:10370000CE010E942C1ADF91CF911F910F91FF9053
:10371000EF90089568E4E62EC3CF58E2E52EC0CFBF
:1037200048E8E42EBDCF38EEE32EBACFF12CD7CF48
:1037300020E6F22ED4CF90ECF92ED1CF80EAF82EED
:10374000CECFAF92BF92CF92DF92EF92FF920F93C4
:103750001F93CF93DF93EC017B016A01B22EA32E5E
:1037600077FD3BC057FD39C0888599856817790773
:10377000A4F58A859B85481759077CF5EB8DFC8D50
:1037800080819FA1892380838A8D811145C08D8985
:10379000823071F18330C9F1813031F48FEE90E0E5
:1037A000841B950B6B017C01A70160E270E0CE01E8
:1037B0000E944A17A60161E270E0CE010E944A17FA
:1037C0004B2D5A2D62E270E0CE010E944A17EB8D1C
:1037D000FC8D80819BA1892B8083DF91CF911F91EC
:1037E0000F91FF90EF90DF90CF90BF90AF90089532
:1037F0008FEE90E09C01261B370B79018FE391E05F
:103800009C01241B350B6901CFCF8FE391E0861B10
:10381000970B7A016C01C8CF813009F06CC0ED893B
:10382000E15040E0E33020F4F0E0E55DFE4F408100
:1038300066E1CE010E94B417970143E062E0CE0139
:103840000E94D416960147E066E0CE010E94D4168D
:10385000ED8DFE8D808198A5892380838BB1837047
:1038600080628BB985B18C7F826085B9EF8DF8A1BC
:10387000808199A589238083EF8DF8A180819DA106
:10388000892B8083ED8DFE8D80819CA1892B808387
:103890008BB183709A2D9C7F892B8BB985B18C7FDE
:1038A0003A2D3370A32EA82AA5B8EF8DF8A18081F8
:1038B00099A589238083EF8DF8A180819DA1892B13
:1038C00080838BB183709B2D9C7F892B8BB985B1B5
:1038D0008C7F9B2D9370B92EB82AB5B8EF8DF8A1C7
:1038E000808199A589238083EF8DF8A180819DA196
:1038F000892B80836CCF8250823008F068CF0A8594
:103900001B85015011092885398521503109CE01C7
:103910000E942C1AEB8DFC8D80819FA189238083CE
:10392000ED8DFE8D808198A5892380838BB1837076
:103930008C628BB985B18C7F85B9EF8DF8A18081C0
:1039400099A589238083EF8DF8A180819DA1892B82
:103950008083ED8DFE8D80819CA1892B80838BB12E
:1039600083709A2D9C7F892B8BB995B19C7F2A2DD2
:103970002370A22EA92AA5B8EF8DF8A1808199A560
:1039800089238083EF8DF8A180819DA1892B80837D
:103990008BB183709B2D9C7F892B8BB995B19C7FBC
:1039A0003B2D3370B32EB92A98CFEF92FF920F932D
:1039B0001F93CF93DF93EC017B018A8D811135C07A
:1039C0008D898150833060F590E0FC01E85DFE4F09
:1039D000408150E0880F991FFC01EE5DFE4F008191
:1039E0001181EB8DFC8D80819FA18923808360E212
:1039F00070E0CE010E944A17A80161E270E0CE019A
:103A00000E944A1720E03CE241E050E0B701CE01BD
:103A1000DF91CF911F910F91FF90EF900C94F017D1
:103A200010E000E050E040E0DCCF8150833050F700
:103A30000A851B85015011092885398521503109D6
:103A400050E040E070E060E0CE010E942C1ADACF36
:103A50008F929F92AF92BF92CF92DF92EF92FF929E
:103A60000F931F93CF93DF93EC01F901D801470126
:103A70001E161F06ECF41A161B06D4F4A884B9848B
:103A80006A157B05ACF48A859B854817590784F431
:103A90007901E60EF71E97012150310937FD08C064
:103AA0006801C40ED51E86010150110917FF56C0CA
:103AB000DF91CF911F910F91FF90EF90DF90CF900A
:103AC000BF90AF909F908F90089570E060E057FD99
:103AD00033C06D012A153B0534F0950121503109A1
:103AE0007501E61AF70A0817190734F08C0101501E
:103AF00011096C01C41AD50ACE010E942C1A970133
:103B0000D6010E9439329B01AC01B401CE010E9462
:103B1000F0178A8D811113C00A851B850150110988
:103B2000288539852150310950E040E070E060E09F
:103B3000CE010E942C1ABCCF50E040E0CBCFCE018A
:103B4000DF91CF911F910F91FF90EF90DF90CF9079
:103B5000BF90AF909F908F900C94081A77FDB5CFCF
:103B60007F01B5CFCF92DF92EF92FF920F931F9319
:103B7000CF93DF93EC0169017801121613060CF064
:103B80003FC077FD3DC08885998568177907C4F5E2
:103B90008A859B85481759079CF5240F351F890195
:103BA0000150110917FD2CC057FF03C0690150E0F7
:103BB00040E00817190734F08C01015011096C011D
:103BC000C41AD50A9B01CE010E942C1A9601DD0C65
:103BD000440B550BB701CE010E94F0178A8D81115D
:103BE00018C00A851B850150110928853985215087
:103BF000310950E040E070E060E0CE010E942C1AF4
:103C0000DF91CF911F910F91FF90EF90DF90CF90B8
:103C10000895CE01DF91CF911F910F91FF90EF900A
:103C2000DF90CF900C94081ACF92DF92EF92FF9220
:103C30000F931F93CF93DF93EC0169017801121664
:103C400013060CF040C057FD3EC08A859B8548177F
:103C50005907CCF58885998568177907A4F5F90186
:103C6000E60FF71F9F012150310937FD2CC077FF68
:103C700003C06F0170E060E02817390734F09C0141
:103C8000215031096C01C61AD70A8A01CE010E945F
:103C90002C1A9601DD0C440B550BB701CE010E9486
:103CA000F0178A8D811118C00A851B8501501109F2
:103CB000288539852150310950E040E070E060E00E
:103CC000CE010E942C1ADF91CF911F910F91FF908E
:103CD000EF90DF90CF900895CE01DF91CF911F91AB
:103CE0000F91FF90EF90DF90CF900C94081A0895F9
:103CF00090E080E008950E943034FC018081918141
:103D0000009711F00C94EA320895EF92FF920F930E
:103D10001F93CF93DF93EC017B018A018881998106
:103D2000009729F02A813B812417350788F4B801D0
:103D30006F5F7F4F0E947333009791F09983888360
:103D40001B830A832C813D81232B11F4FC011082FB
:103D50001D830C83B701888199810E943E340CC079
:103D600088819981009711F00E94EA3219821882A5
:103D70001D821C821B821A82CE01DF91CF911F917E
:103D80000F91FF90EF900895FC0111821082138231
:103D9000128215821482FB0101900020E9F731970D
:103DA000AF01461B570B0C94851EFB0101900020B0
:103DB000E9F73197AF01461B570BDC01ED91FC9100
:103DC0000280F381E02D09948F929F92AF92BF926F
:103DD000EF92FF920F931F93CF93DF93CDB7DEB790
:103DE000A1970FB6F894DEBF0FBECDBF7C01FA01DC
:103DF000CB0119A2223008F42AE08E010F5D1F4F7B
:103E0000822E912CB12CA12CBF01A50194010E94FE
:103E1000D930F901CA016A300CF5605DD8016E93A2
:103E20008D01232B242B252B79F790E080E0109730
:103E300021F0BD01C7010E94D51EA1960FB6F894CE
:103E4000DEBF0FBECDBFDF91CF911F910F91FF90CD
:103E5000EF90BF90AF909F908F900895695CDECFF8
:103E6000CF92DF92EF92FF920F931F93CF93DF9346
:103E7000EC016A017B01E881F9810190F081E02D7C
:103E80006DE209958C0144275527BA014C195D094B
:103E90006E097F092AE0CE010E94E41E800F911F67
:103EA000DF91CF911F910F91FF90EF90DF90CF9016
:103EB00008950F931F93CF93DF93EC01AB01770F1E
:103EC000660B770B77FF0FC00E94301F8C0164E8F0
:103ED00071E0CE010E94D51E800F911FDF91CF911E
:103EE0001F910F9108952AE00E94E41EEFCFAB01CD
:103EF000770F660B770B77FD0C94301F2AE00C943C
:103F0000E41ECF93DF93BC018CE294E00E94D51EA7
:103F1000EC0164E871E08CE294E00E94D51E8C0F05
:103F20009D1FDF91CF91089580917203909173034B
:103F3000181619060CF08AC087E891E00E94811FCC
:103F400064EF71E080E090E00E94880C8091720341
:103F500090917303019721F58CE991E00E94811FF4
:103F60008091130190911401845F9140909314010A
:103F70008093130180910E0190910F01845F914015
:103F800090930F0180930E0180910C0190910D018F
:103F9000845F914090930D0180930C0110921A015F
:103FA0008091720390917303029711F580EA91E07A
:103FB0000E94811F8091130190911401845F9140B0
:103FC000909314018093130180910E0190910F0141
:103FD000845F914090930F0180930E0180910C01BA
:103FE00090910D01845F914090930D0180930C019D
:103FF0008091720390917303049721F58CE991E00D
:104000000E94811F8091130190911401885E93405A
:10401000909314018093130180910E0190910F01F0
:10402000885E934090930F0180930E0180910C0164
:1040300090910D01885E934090930D0180930C0147
:1040400010921A01109273031092720308950C9447
:10405000D51ECF92DF92EF92FF920F931F93CF93D3
:10406000DF936C0170E060E08DED94E00E94D51C60
:104070000FEF1FEF20EF30E04FE351E070E060E022
:1040800090E080E00E94FB14EE24EA94FE2C08E00D
:1040900010E028E230E043E950E065E570E090E0B0
:1040A00080E00E944C130FEF1FEF26E930E043E958
:1040B00050E065E570E090E080E00E94FB1490EE37
:1040C000E92E97E0F92E08E010E028E230E049EA16
:1040D00050E065E570E084E990E00E944C130FEF3A
:1040E0001FEF26E930E049EA50E065E570E084E939
:1040F00090E00E94FB140FEF17E02CE330E040E467
:1041000051E06BE470E090E080E00E94FB14CDEDA4
:10411000D4E012E01C8B1B8A1A8A198A188A82E062
:1041200090E09D878C878FE590E09F878E8765EA7A
:1041300071E0CE010E9427208DE990E09D878C8759
:1041400084E690E09F878E871C8B8FEF9FEF9B8B81
:104150008A8B998B888BF6014481558160817181AE
:10416000CE010E94C40A10922B0410922A041092CD
:104170002904109228040E94580D8EE29AE0909330
:104180002504809324048AE39AE090932704809383
:10419000260480E18093BA001C8B8091DB0490910F
:1041A000DC049B8B8A8B998B888B8AE090E09D87BF
:1041B0008C8786E990E09F878E8762EB71E0CE0165
:1041C0000E94272085E08C8B80EE97E09B8B8A8B6A
:1041D000998B888B87E890E09D878C8783EA90E0B5
:1041E0009F878E876BEC71E0CE010E9427201C8B8D
:1041F000E12C28EFF22E08E010E02EE130E04EE650
:1042000050E067E070E08AE090E00E944C130FEF0E
:104210001FEF2EE130E04EE650E067E070E08AE00C
:1042200090E00E94FB1489E190E09D878C878FE0ED
:1042300090E09F878E876EE573E0CE01DF91CF918E
:104240001F910F91FF90EF90DF90CF900C9427205B
:104250000F931F93CF93DF9300D000D000D0CDB742
:10426000DEB78C0110921B0170E060E08DED94E0F0
:104270000E94D51C1A8219821C821B821E821D82FA
:10428000F801608171816115710531F044815581BA
:10429000CE0101960E94851ECE0101960E94292022
:1042A000CE0101960E947D1E26960FB6F894DEBFC1
:1042B0000FBECDBFDF91CF911F910F91089581E087
:1042C00080931B018093190170E060E08DED94E014
:1042D0000E94D51CEDEDF4E083E0848B80EE97E046
:1042E000938B828B918B808B8EE190E09587848776
:1042F0008AE090E0978786876DEC71E0CF010E949D
:10430000272046E750E06EE770E083E497E00E94E4
:10431000C31368EB7BE080E090E00C94880CEF9294
:10432000FF920F931F93CF93DF9320911B012111D5
:1043300047C020911901211143C0EC01F12CE12C5F
:1043400008E210E02EE630E045EA50E06AEB70E06B
:104350008DED94E00E94AF102EE630E045EA50E08B
:104360006AEB70E08DED94E00E94281D83E080935D
:10437000F10489EB90E09093EA048093E9040AEA5F
:1043800010E01093EC040093EB0465EE71E08DED0A
:1043900094E00E94272081EE90E09093EA048093BD
:1043A000E9041093EC040093EB04BE018DED94E05E
:1043B000DF91CF911F910F91FF90EF900C94591FB7
:1043C000DF91CF911F910F91FF90EF900895DF92B1
:1043D000EF92FF920F931F93CF93DF9380911C0472
:1043E000882309F4D0C010921C0488EB9BE09093C2
:1043F00014018093130180EA9FE090930F01809352
:104400000E0180E797E190930D0180930C0181E00C
:1044100080931B0170E060E08DED94E00E94D51C5C
:1044200083E08093F10480EE97E09093F004809312
:10443000EF049093EE048093ED048EE190E090936E
:10444000EA048093E9048AE090E09093EC0480937E
:10445000EB0469EE71E08DED94E00E94272082E08C
:10446000D82ED092F104E12C98EFF92E08E010E05C
:1044700028E230E040E550E064EB70E084E190E059
:104480000E944C130FEF1FEF28E230E040E550E0B0
:1044900064EB70E084E190E00E94FB1483E290E022
:1044A0009093EA048093E904CEEBD0E0D093EC043F
:1044B000C093EB0462EB72E08DED94E00E94272044
:1044C000D092F10408E010E028E230E040E550E04E
:1044D00064EB70E088E790E00E944C130FEF1FEF51
:1044E00028E230E040E550E064EB70E088E790E0DF
:1044F0000E94FB148CE890E09093EA048093E90416
:10450000D093EC04C093EB0460EA72E08DED94E08C
:104510000E942720D092F10408E010E028E230E069
:1045200040E550E064EB70E08CED90E00E944C13AD
:104530000FEF1FEF28E230E040E550E064EB70E061
:104540008CED90E00E94FB1481EE90E09093EA04E1
:104550008093E904D093EC04C093EB0469EF71E01D
:104560008DED94E00E94272045E750E065E770E07C
:1045700088E690E0DF91CF911F910F91FF90EF902F
:10458000DF900C94C31380911E04882319F01092BD
:104590001E042BCF80911F04882309F426CF10928C
:1045A0001F0423CFEF92FF920F931F93CF93DF93BC
:1045B00080911A01882309F4BDC0409120045091D4
:1045C00021046091220470912304809174039091DE
:1045D0007503A0917603B09177038A019B01081BB4
:1045E000190B2A0B3B0BD901C801883E9340A1054A
:1045F000B10588F0809115019091160140937403E4
:1046000050937503609376037093770301979093AB
:104610001601809315018091150190911601CD9797
:1046200008F073C0809117019091180197FD89C01F
:1046300082E08093F10480EA90E09093EA04809312
:10464000E90483E090E09093EC048093EB0460E055
:1046500072E08DED94E00E942720F12CE12C08E21D
:1046600010E028E530E04EE150E06EEB70E08DEDBB
:1046700094E00E94AF1028E530E04EE150E06EEB90
:1046800070E08DED94E00E94281D13E01093F1047A
:1046900087EC90E09093EA048093E904C8E2D0E0CC
:1046A000D093EC04C093EB04609117017091180152
:1046B0008DED94E00E94771F86E08093F1048DECED
:1046C00090E09093EA048093E9048DE190E0909368
:1046D000EC048093EB046EE072E08DED94E00E94B8
:1046E00027201093F10485EE90E09093EA048093E4
:1046F000E904D093EC04C093EB0460911501709130
:1047000016018DED94E00E94591F80911501909142
:104710001601892B79F48BE390E090931601809336
:10472000150180911701909118010197909318013C
:1047300080931701DF91CF911F910F91FF90EF9020
:10474000089510921A0110921601109215011092FC
:1047500018011092170160E172E08CE294E00E946F
:1047600027200E94E721D1CF6091110170911201A1
:104770006115710521F089EC94E00C94D51E089523
:104780002F923F924F925F926F927F928F929F9261
:10479000AF92BF92CF92DF92EF92FF920F931F934F
:1047A000CF93DF9300D000D000D0CDB7DEB781E04B
:1047B00080931B018093190170E060E08DED94E01F
:1047C0000E94D51C83E08093F10480EE97E09093E3
:1047D000F0048093EF049093EE048093ED048EE157
:1047E00090E09093EA048093E9048AE090E090934B
:1047F000EC048093EB046EE172E08DED94E00E9496
:1048000027208DE091E09E838D83812C912C30E8D0
:10481000A32E3FE3B32E46EB242E312C20E030E0D4
:1048200040E85FE3C501B4010E940B314B015C011C
:104830000FEF1FEF28E230E048E151E064EB70E059
:104840008FE090E00E94FB14C501B4010E94E931A1
:10485000CB01E12C28EFF22E0AE010E029E130E054
:10486000AB016CEB70E00E944C131092F0041092BC
:10487000EF041092EE041092ED0492E09093F10494
:1048800020E030E048E052E4C501B4010E940A3162
:104890000E94E9317093EA046093E9043092EC04D9
:1048A0002092EB042DEC3CEC4CE250E4C501B40149
:1048B0000E9477316B017C01C982DA82EB82FC8233
:1048C000AC019B010E9424326AE472E081111AC09B
:1048D00026013701E89477F82FEF3FEF4FE75FE7C6
:1048E000C301B2010E942432811139C02FEF3FEF82
:1048F0004FE75FE7C301B2010E944C2F18167CF509
:104900006EE472E08CE294E00E94D51E64E871E0EF
:104910008CE294E00E94D51EAD81BE811197BE83CA
:10492000AD83AB2B09F07ACF1092100126960FB60B
:10493000F894DEBF0FBECDBFDF91CF911F910F91D5
:10494000FF90EF90DF90CF90BF90AF909F908F90AF
:104950007F906F905F904F903F902F9008952FEF32
:104960003FEF4FE75FE4C701B6010E941F32181600
:104970001CF462E572E0C6CF2FEF3FEF4FE75FEC2C
:10498000C701B6010E944C2F87FDF3CF20E030E035
:10499000A901C701B6010E944C2F87FF0CC06DE230
:1049A0008CE294E00E94640BD701C601B058898361
:1049B0009A83AB83BC8320E030E040E05FE3698111
:1049C0007A818B819C810E940B310E94F031AB0176
:1049D000BC012AE08CE294E00E94E41E97CFCF93C2
:1049E000DF9385ED8093BC0080919A0390919B03A7
:1049F000A0919C03B0919D030796A11DB11D23E0DA
:104A0000B695A795979587952A95D1F72091BC00E3
:104A100024FD03C01092E20336C040919A035091E6
:104A20009B0360919C0370919D03452B462B472B64
:104A300069F30097A105B10541F025E32A95F1F747
:104A400000000197A109B109E1CF8091990391E09C
:104A5000909398038823B9F0C091B800D091BA0020
:104A60008091BC008A7B8093BC0060E082E10E9460
:104A7000D10B60E083E10E94D10B0E94580DD093CE
:104A8000BA00C093B800DF91CF9108951F920F92A2
:104A90000FB60F9211242F933F934F935F936F9311
:104AA0007F938F939F93AF93BF93EF93FF938CE28A
:104AB00094E00E94420BFF91EF91BF91AF919F91C3
:104AC0008F917F916F915F914F913F912F910F90B7
:104AD0000FBE0F901F9018951F920F920FB60F9256
:104AE00011242F938F939F93EF93FF93E0913C04B6
:104AF000F0913D048081E0914204F091430482FDF5
:104B00001BC09081809145048F5F8F732091460474
:104B1000821741F0E0914504F0E0E45DFB4F958F92
:104B200080934504FF91EF919F918F912F910F906A
:104B30000FBE0F901F9018958081F4CF1F920F9297
:104B40000FB60F9211242F933F938F939F93AF93A0
:104B5000BF938091160490911704A0911804B0910E
:104B600019043091080423E0230F2D3758F50196DE
:104B7000A11DB11D2093080480931604909317047F
:104B8000A0931804B09319048091090490910A0429
:104B9000A0910B04B0910C040196A11DB11D80934E
:104BA000090490930A04A0930B04B0930C04BF91E2
:104BB000AF919F918F913F912F910F900FBE0F90CA
:104BC0001F90189526E8230F0296A11DB11DD2CF84
:104BD0001F920F920FB60F9211242F933F934F9372
:104BE0005F936F937F938F939F93AF93BF93EF9355
:104BF000FF938091B900887F803609F44AC0F0F5B0
:104C0000883209F4A7C018F5803109F49BC0B8F4C4
:104C1000882309F4F9C0883009F494C0FF91EF911A
:104C2000BF91AF919F918F917F916F915F914F91C4
:104C30003F912F910F900FBE0F901F9018958831C4
:104C400009F488C0803251F78093E10314C08034A6
:104C500009F49DC040F48033B9F38833F9F68093AA
:104C6000E10385ECB0C0803509F485C0883509F4CE
:104C700096C0883499F60E94EF24D0CF883909F481
:104C80008CC038F5883729F050F4883611F0803719
:104C900029F683E08093E2031092E00357C088383E
:104CA00009F47BC0803919F0803809F0B7CF8091C2
:104CB000E003803208F071C0E091E00381E08E0FE4
:104CC0008093E0038091BB00F0E0E054FC4F8083D0
:104CD0003DC0803B39F0E0F4803A09F479C0883A6D
:104CE00009F09CCF84E08093E2031092BF031092FE
:104CF000BE03E0912404F091250409958091BE0340
:104D000081110FC081E08093BE0310929E0309C001
:104D1000803C09F4A6CF883C09F4A3CF883B09F076
:104D20007DCFE091BF0381E08E0F8093BF03F0E061
:104D3000E256FC4F80818093BB009091BF0380912D
:104D4000BE0329C0809107048093BB0085EC80934B
:104D5000BC0064CF9091060480910504981758F523
:104D6000E091060481E08E0F80930604F0E0EB51A1
:104D7000FC4F8081E9CFE091060481E08E0F8093A3
:104D800006048091BB00F0E0EB51FC4F80839091D2
:104D90000604809105049817C8F285E8D8CFE09101
:104DA000060481E08E0F809306048091BB00F0E042
:104DB000EB51FC4F80838091E40381115CCF81E053
:104DC0008093E30384EA8093BC001092E20326CF31
:104DD00085EC8093BC001092E2038091E003803266
:104DE00030F4E091E003F0E0E054FC4F1082609179
:104DF000E00370E0E0912604F091270480EC93E05A
:104E000009951092E0030ACF1092E10334CF1F926C
:104E10000F920FB60F9211242F933F934F935F93EE
:104E20006F937F938F939F93AF93BF93CF93EF93A2
:104E3000FF9393B180910D04C0911304C923282FCF
:104E40002095C223209110048223292F20958223AC
:104E5000C82B90930D04C0FF05C0E0910001F091B4
:104E600001010995C1FF05C0E0910201F091030124
:104E70000995C2FF05C0E0910A01F0910B01099567
:104E8000C3FF05C0E0910401F09105010995C4FF3D
:104E900005C0E0910601F09107010995C5FF05C025
:104EA000E0910801F09109010995FF91EF91CF91EF
:104EB000BF91AF919F918F917F916F915F914F9132
:104EC0003F912F910F900FBE0F901F901895BF929A
:104ED000CF92DF92EF92FF920F931F93CF93DF93C6
:104EE000ECE2F4E01382128288EE93E0A0E0B0E0FE
:104EF00084839583A683B78328E331E031832083BD
:104F000025EC30E03587248724EC30E0378726878E
:104F100020EC30E0318B208B21EC30E0338B228B86
:104F200022EC30E0358B248B26EC30E0378B268B5F
:104F3000118E128E138E148EE9ECF4E0138212821D
:104F400084839583A683B7838AE491E091838083E9
:104F5000A9E0B5E080E112968C9312978FE0149649
:104F60008C93149786E013968C93139787E015968D
:104F70008C9315978CE291E017969C938E931697DD
:104F8000E6EEF3E1E491F0E0EE0FFF1FEB52FC4E92
:104F90008591949119969C938E9318976FEE73E177
:104FA000FB018491E82FF0E0EE0FFF1FEB52FC4E67
:104FB000859194911B969C938E931A978EEE93E114
:104FC000FC012491E22FF0E0EE0FFF1FEB52FC4EAC
:104FD000259134911D963C932E931C97E5EEF3E1B9
:104FE000E491F0E0EE0FFF1FEB52FC4E259134915F
:104FF0001F963C932E931E97E8ECF3E1E4915096B4
:10500000EC93509741ED53E1FA01249152962C9381
:10501000529720ED33E1F901C4915196CC93519709
:10502000E7ECF3E1E4915396EC935397EAE0F0E078
:10503000ED93FC93CDEDD4E01B821A82E0EFEE2ECF
:10504000F12CFD82EC8200E411E01F830E83F986CF
:10505000E8861B870A871D8A1D861C861F861E867A
:10506000BB24B394BC8ACC24CA94DC2CDB8ACA8AC5
:10507000D98AC88ABE8A1F8A198E188EECE5F1E09B
:10508000F983E8831BA6E0EFF3E1E491F0E0EE0F93
:10509000FF1FEB52FC4EA591B491BC8FAB8FFB016F
:1050A0006491E62FF0E0EE0FFF1FEB52FC4E65918E
:1050B00074917E8F6D8FFC018491E82FF0E0EE0FEC
:1050C000FF1FEB52FC4E8591949198A38F8FEDEECC
:1050D000F3E1E491F0E0EE0FFF1FEB52FC4E8591FF
:1050E00094919AA389A3E2EDF3E184918BA3FA0151
:1050F00044914CA3F90124912DA3EFECF3E1E49149
:10510000EEA3982F90959FA3409548A7209529A797
:10511000E095EAA7EC91E82BEC93ED8DFE8D808174
:105120009CA1892B8083EF8DF8A180819DA1892B83
:105130008083E9A1FAA180819EA1892B808361E00F
:1051400081E10E941D0C61E080E10E941D0C61E084
:105150008FE00E941D0C61E08EE00E941D0C0E94F9
:10516000260A1D8A1D861C861F861E86BC8AD98A31
:10517000C88AF986E8861B870A878FE991E39093AE
:10518000DC048093DB0466E871E085ED94E0DF9158
:10519000CF911F910F91FF90EF90DF90CF90BF9034
:1051A0000C94C41ECF93DF9300D000D000D0CDB7B5
:1051B000DEB7789484B5826084BD84B5816084BD97
:1051C00085B5826085BD85B5816085BD80916E00A5
:1051D000816080936E0010928100809181008260D6
:1051E0008093810080918100816080938100809113
:1051F00080008160809380008091B1008460809302
:10520000B1008091B00081608093B00080917A00FD
:10521000846080937A0080917A00826080937A0023
:1052200080917A00816080937A0080917A00806812
:1052300080937A001092C1000E94BB0C0E94BB0CAC
:1052400068EC70E080E090E00E94880C62E0D62E6E
:10525000D092F704E091F804F091F90480819091E4
:1052600004058923808340E061E08DED94E00E9495
:10527000B41762E370E080E090E00E94880C40E0A8
:1052800068E28DED94E00E94B41743E260EC8DED8E
:1052900094E00E94B41740E161EC8DED94E00E942F
:1052A000B4174BE25BE265EC70E08DED94E00E9498
:1052B0004A1740EC67EC8DED94E00E94B41748E883
:1052C00066E38DED94E00E94B41745E56AE38DED49
:1052D00094E00E94B4174BE150E061EB70E08DED7B
:1052E00094E00E944A1747E067EB8DED94E00E943E
:1052F000B41740E061E18DED94E00E94B41766E9D7
:1053000070E080E090E00E94880C40E069E28DED62
:1053100094E00E94B41764EF71E080E090E00E9496
:10532000880C0FE311E02FEE30E050E040E070E039
:1053300060E08DED94E00E942C1AE0913C04F09125
:105340003D04D082E0913804F09139041082E0915C
:105350003A04F0913B048FEC808310924404E09176
:105360004004F091410486E08083E0913E04F09196
:105370003F04808180618083E0913E04F0913F048E
:10538000808188608083E0913E04F0913F048081B9
:1053900080688083E0913E04F0913F0480818F7D9E
:1053A000808364E871E08CE294E00E94D51E89EB72
:1053B0009AE090930B0180930A018091130484601A
:1053C000809313048091100484608093100483B14F
:1053D00080930D0480916B00846080936B008091BA
:1053E000680081608093680010922B0410922A0458
:1053F00010922904109228040E94580D8EE29AE01F
:1054000090932504809324048AE39AE090932704E0
:105410008093260480E18093BA0066E572E08CE216
:1054200094E00E94272064EF71E080E090E00E9409
:10543000880C05E010E083ED0E94530A613423E9F3
:10544000720709F469C001501109A9F784E00E94AC
:10545000530A611570488105910509F4F7C2E0917E
:10546000F804F091F90480819091040589238083E8
:10547000E091FA04F091FB04808190910505892365
:1054800080838BB183708BB985B18C7F85B9E091B6
:10549000FC04F091FD0480819091060589238083AE
:1054A000E091FC04F091FD04808190910205892B2C
:1054B0008083E091FC04F091FD04808190910605C9
:1054C00089238083E091FC04F091FD048081909118
:1054D0000205892B80838AB183708AB984B18C7F5D
:1054E00084B9E091FA04F091FB0480819091010568
:1054F000892B80830E943B0A182F0E943B0A082FA9
:105500000E94260AE091F804F091F90480819091BC
:105510000005892B8083B801AB0170E060E020E1D9
:105520008CE294E00E94E41E64E871E08CE294E076
:105530000E94D51E70E060E08DED94E00E94D51CC5
:1055400061E08DED94E00E94FD1A0E94E7212FB7E3
:10555000F8948091160490911704A0911804B091CA
:1055600019042FBF8093200490932104A093220458
:10557000B093230461E08DE00E94D10B60E0809144
:105580000B050E941D0C60E080910C050E941D0C13
:1055900061E080910E050E941D0C61E080910D0577
:1055A0000E941D0C80911905E0911105F0911205E2
:1055B0009081892B808380911A05E0911505F091E7
:1055C0001605908180958923808380910B050E9428
:1055D0004E0C8C0180910B050E944E0C9801281BEB
:1055E000390B2C5F3F4F712C2930310530F4800F7F
:1055F000911F9595879577247394AA24AA9443E0E4
:10560000B42EA81AB90A60E080910E050E941D0C04
:1056100060E080910D050E941D0C61E080910B05FA
:105620000E941D0C61E080910C050E941D0C809170
:105630001C05E0911705F09118059081809589234C
:10564000808380911B05E0911305F09114059081F2
:10565000892B808380910D050E944E0C8C018091D6
:105660000D050E944E0C6C01C8018C199D09049611
:10567000099708F08FC2C00ED11ED594C79461E07F
:1056800080910E050E941D0C60E080910B050E9428
:105690001D0C80911905E0911105F0911205908182
:1056A00080958923808380911C05E0911705F091F6
:1056B00018059081892B808380910D050E944E0CE6
:1056C0008C0180910B050E944E0CBC0180900F054F
:1056D000909010058114910409F45EC2072E000C0D
:1056E000880B990B0E94532F1B012C01B801110F3D
:1056F000880B990B0E94532F9B01AC01C201B10191
:105700000E94773120E030E040E85FE30E940A31F8
:105710001B012C01B5010B2C000C880B990B0E946E
:10572000532FA20191010E94B22F1B012C01B40141
:1057300090E080E00E94512FA20191010E94B22FBF
:1057400020E030E040E85AE30E94B22F0E94E931A5
:105750008B01711002C010E000E060E08DE00E945B
:10576000D10B61E08FE00E941D0C61E080E10E949E
:105770001D0CC8010B978D3D934008F0BBC04090B5
:10578000E5045090E604052C000C660877089501A6
:10579000BB0C440B550B26593109410951096627A9
:1057A0007727CB0164197509860997090E94293268
:1057B00022E033E040E050E00E94703049015A019D
:1057C000840C951CA61CB71C2FEF33E02C193D0947
:1057D000032E000C440B550B285731094109510980
:1057E000A091E704B091E8040E949A3024E333E0EA
:1057F00040E050E00E947030290164E672E08CE2E3
:1058000094E00E942720B4018CE294E00E94771F6C
:1058100069E672E08CE294E00E942720B2018CE2FB
:1058200094E00E94771F6FE672E08CE294E00E94A1
:105830002720B8018CE294E00E94591FC2018A9788
:105840004E9768F5A401415151094D34510508F0B6
:10585000AAC180911B01882309F4A5C18CE792E0BD
:105860000E94811F10921B011092190110921D04B9
:1058700070E060E08DED94E00E94D51C69E872E074
:10588000CE0101960E94C41ECE0101960E942920DD
:10589000CE0101960E947D1E81E080931F0499EC49
:1058A000491A510826E14216510420F58DEB881A59
:1058B00091089CE689169104E8F480911B018111FE
:1058C00019C08CE493E00E94811F80911C048823FE
:1058D00009F4B7C210921C040E94E72181E090E015
:1058E00090931801809317018BE390E09093160139
:1058F0008093150180911C048823B9F181E991E01E
:105900000E94811F0E94941F8091130190911401A5
:105910000E948F210E94D222809113019091140144
:10592000892B19F510921A0182EB92E090931201E3
:105930008093110184EB93E290931B0480931A04EB
:1059400080911001882331F00E94C02386E693E005
:105950000E94811F80911001811102C00E945F216D
:105960000E94E72181E08093100180911E0488232A
:1059700071F180910E0190910F010E948F210E9480
:10598000941F0E94D22280910E0190910F01892BC9
:10599000F1F410921A0180EA92E090931201809340
:1059A000110184EB93E290931B0480931A0480917D
:1059B000100181110E94C02380911001811102C049
:1059C0000E945F210E94E72181E080931001809175
:1059D0001F04882371F180910C0190910D010E94A8
:1059E0008F210E94941F0E94D22280910C019091DD
:1059F0000D01892BF1F410921A0189EF91E0909337
:105A000012018093110184EB93E290931B04809325
:105A10001A048091100181110E94C023809110010D
:105A2000811102C00E945F210E94E72181E08093E2
:105A3000100180E090E0892B09F489CD0E942E0BA3
:105A4000882309F484CD0E94000081CDE091F80400
:105A5000F091F90480819091040589238083E0917D
:105A6000FA04F091FB0480819091050589238083DD
:105A70008BB18370886B8BB985B18C7F816085B960
:105A8000E091FC04F091FD0480819091060589234A
:105A90008083E091FC04F091FD04808190910205E7
:105AA000892B8083E091FA04F091FB04808190912E
:105AB0000105892B808383E290E0FC013197F1F7A7
:105AC0002BB12C6F2BB925B1236025B9E091FC04D3
:105AD000F091FD0420813091060523232083E0917D
